:0300000002049364
:1004930078FFE4F6D8FD9000007F007E01E4F0A32E
:0A04A300DFFCDEFA7581250201007E
:10046B00759180759204D293759850438780E4F50B
:10047B00C8758920758E02758BD9758DD9C28ED2B0
:08048B00ABD28ED2ACD2AF223D
:030023000203A62F
:1003A600C0E0C0D075D000C007309905C2997599D4
:1003B60068309869C298AF99751C008F1DE51D6459
:1003C60010451C7005750D01803FE51D6420451C18
:1003D6007007F50D750F018032E51D6430451C7000
:1003E6000BF50DF50F750E01F5118031E51D644015
:1003F600451C700BF50DF50FF50E751101801EE508
:100406001D6455451C700AF50DF50FF50EF51180A6
:100416000C750D00750F00750E00751100D007D014
:04042600D0D0E03220
:100100001204AD1204C61204EC12046B43CF10307B
:10011000800302025A751001E4F508F516F50CF596
:100120000BF50AF509F525F524F523F522F521F55A
:1001300020F51FF51EF515F514F513F512F51AF552
:1001400019F518F51720A53320A430E50D6003023A
:10015000020FE50F6003020217E50E60028072E5F0
:10016000116002807BE50D700FE50F700BE50E70DE
:1001700007E511700302024C02024C30A53330A493
:1001800030E50D60028034E50F60028039E50E60D5
:1001900003020222E5116003020231E50D700FE552
:1001A0000F700BE50E7007E511700302024C02029E
:1001B0004C30A54B20A448E50D6007D285C28402CF
:1001C0000372E50F6007C285D284020372E50E60F8
:1001D0000BC284C285D2A6C2A702010CE511600B36
:1001E000C284C285C2A6D2A702010CE50D700EE53D
:1001F0000F700AE50E7006E5117002804F804D30D9
:10020000A50302010C20A40302010CE50D6004D239
:1002100084803BE50F6007C284D285020372E50E3D
:10022000600BC284C285D2A7C2A602010CE5116090
:100230000BC284C285C2A7D2A602010CE50D7013C1
:10024000E50F700FE50E700BE5117007C284C285D3
:10025000020372C284C285020372E4FFFEFDFCAB9E
:1002600025AA24A923A822C31204DB701DE5252496
:1002700001F525E43524F524E43523F523E435227E
:10028000F522C284C285C2A6C2A7E510700302038C
:100290004F750801E47F107E27FDFCAB0CAA0BA96B
:1002A0000AA809D31204DB4049E5212401F521E421
:1002B0003520F520E4351FF51FE4351EF51EE4F565
:1002C0000CF50BF50AF5097F05FEFDFCAB21AA2014
:1002D000A91FA81ED31204DB4018E4F521F520F570
:1002E0001FF51EF508F50CF50BF50AF509D2857515
:1002F0001601E47F607EEAFDFCAB1AAA19A918A8D2
:1003000017D31204DB4048E5152401F515E4351434
:10031000F514E43513F513E43512F512E4F51AF586
:1003200019F518F5177F02FEFDFCAB15AA14A913E9
:10033000A812D31204DB4017E4F515F514F513F5F4
:1003400012F516F51AF519F518F517C285F51020EE
:10035000A427E50E6005D2A602010CE5116005D2C6
:10036000A702010CE50E600302010CE51160030217
:10037000010CC2A6C2A702010C20A40302010CE5D5
:100380000E6005D2A702010CE5116005D2A602019C
:100390000CE50E600302010CE511600302010CC2C2
:0603A000A6C2A702010C39
:03000B0002042AC2
:10042A00C0E0C0D0758CFD758AA8E5086015E50C9A
:10043A002401F50CE4350BF50BE4350AF50AE4352D
:10044A0009F509E5166015E51A2401F51AE43519C6
:10045A00F519E43518F518E43517F517D0D0D0E0BA
:01046A00325F
:1004AD00539AFE439B0153A1EF43A21053A1DF4387
:0904BD00A220D2A5D2A4D2802213
:1004C600439A10439A2043A14043A180C284C28527
:0504D600C2A6C2A7222E
:0D04EC00758CE8758C90C28CD2A9D28C2240
:1004DB00EB9FF5F0EA9E42F0E99D42F0E89C45F077
:0104EB0022EE
:00000001FF
