:030000000209DC16
:1009DC0078FFE4F6D8FD9000007F807E01E4F0A360
:0A09EC00DFFCDEFA75813C020A31DF
:080DA90012001E1206CF80FBB0
:030D5700010B008D
:0A0D95008F9FE50B60FCE4F50B22D4
:10001E00120055120D6AE4F526752596F524F52382
:0C002E007F06FE120AE4120B3BD2AF2248
:1006CF0090001FE030E712547FF01205F1E48F1411
:1006DF008E13F512F511120DB9E4FFFEFDFCAB14EC
:1006EF00AA13A912A811C31204F270030207A0855E
:1006FF00140F85130E85120D85110CE47F02FEFD7C
:10070F00FCAB0FAA0EA90DA80CC31204F27012E5D0
:10071F001060030207AB7510017F10120D95020DCB
:10072F00CFE47F40FEFDFCAB0FAA0EA90DA80CC3B2
:10073F001204F2700EE5107063751001120DCF7F69
:10074F00308056E47F80FEFDFCAB0FAA0EA90DA8EA
:10075F000CC31204F2700EE5107041751001120DEA
:10076F00CF7F208034E4FF7E80FDFCAB0FAA0EA963
:10077F000DA80CC31204F2700EE510701F75100156
:10078F00120DCF7F408012120DD2E4F5107F8080C2
:0D079F0008120DD2E4F5107F80120D952296
:03001B0002003EA2
:10003E00C0E0758B80758D44E5086008050AE50AF9
:07004E0070020509D0E03249
:03003B00020003BD
:10000300C0E0E59D30E103539DFDE59D30E00353E2
:080013009DFE750B01D0E032E7
:100D6A00758E07758B80758D44C28ED2ABD28E225A
:06005500439108D2932242
:030DCF00D28122AC
:030DD200C28122B9
:030DD500B28122C6
:100AE4008E218F22758FC0759D50AE21AF22EE33BB
:100AF40095E0FDFC7B407A42790F78001204A3ABA9
:100B040026AA25A924A823120B898F9EAE21AF22E1
:100B1400EE3395E0FDFC7B407A42790F78001204B5
:100B2400A3AB26AA25A924A823120B8978081205A9
:070B3400038F9575A9012252
:100CE70003E800C8012C015E012C012C012C012C0A
:100CF70003E803E803E803E803E803E803E8012C53
:080D5A00410000084100221EC7
:050DC0007EC37F5022FC
:050DC5007E017FC22247
:050DCA007E007F78228D
:030DD8007F302247
:030DDB007F012273
:100D070074092FF582E43400F583E025E024E7F544
:0E0D170082E4340CF583E493FE740193FF2212
:030DDE007F002271
:080DB100900000E0C313FF22D3
:0A0D9F00900000E075F00384FF22CD
:0F0D7A00120D077C007D071203F07D0A0204575B
:100C0D00E4FD7FC27E80FCECC39410748094805010
:100C1D0024EEC313FEEF13FF30D71774092DF582A1
:100C2D00E43400F583ECF00DEDC3940474809480EE
:070C3D0050030C80D28D155D
:010C4400228D
:100D4300120C0D75E88075E16575E213E4900020DF
:040D5300F0A3F022F7
:1005F100E4F521F522F523120DE150030206C5129F
:100601000CA1AD07AC06E4FBEBC395155030ECC370
:1006110013FCED13FD30D72374092BF582E434006C
:10062100F583E0FF7E007401A807088005C333CE7F
:1006310033CED8F94223EE422205210B80CAAF21E5
:100641007E00C3EF940274809480400ED200EF9438
:1006510003748094804003120DE420001FE52345BC
:10066100226010900021E004F07006900020E00468
:10067100F0801CE4900020F0A3F0801390001EE0B5
:1006810004F0700690001DE004F0E4F522F5231259
:100691000DC0D3900021E09F900020E09E400A12FF
:1006A1000DE4E4900020F0A3F0D390001EE0942C20
:1006B10090001DE094014011120DE4E490001DF042
:0D06C100A3F080057F02120928AE22AF23AE
:0106CE002209
:070D620041003300011600FF
:10086A0075F002900023120517E0FEA3E0FFE526CB
:10087A0075F00290000D020517E52575F00290004B
:10088A0015020517AD29ED3395E0FCC3ED951574F6
:10089A0080F86C98223395E0FEE52575F002900009
:1008AA0001020517D3E5279FEE6480F8E5266480E8
:1008BA009822900031E0FEA3E0FF90002DE022E5AF
:1008CA002675F002900023020517FEC3E5289FEE65
:1008DA006480F8E52764809822900034E02409F5C2
:1008EA0082E43400F583E022E0FCA3E0C39F22A463
:1008FA00FFE0C39FE5F06480F874809822742D2588
:10090A0029F8E622FCEF9DEC6480F8EE64809822D8
:0E091A005EFEA3E05F4E2290002CE0652522D9
:0C0D8900EF4E6007EF1F70F81E80F5228F
:03005B00020A7620
:100A7600C0E0C0F0C083C082C0D075D000C000C046
:100A860004C005C006C0077816E6FF7E00ADE4ACDC
:100A9600E51203F0900034E012087AEEF0A3EFF0CE
:100AA600900034E004F0E0FDC395154010E4F090AA
:100AB600001FE04480F01208E3F5E8800C74092D6D
:100AC6001208E94480F5E8D2EED007D006D005D06A
:0E0AD60004D000D0D0D082D083D0F0D0E03257
:100B3B0075FE8553FFDF439101C290D2AFC201E432
:100B4B00900034F090001FF0120D43120BCDE5E135
:100B5B00540F2401FFE433FEEF7803C333CE33CEBF
:100B6B00D8F9FF7C007D031204027816A60743A96F
:0E0B7B00101208E342E8D2EE120C45020D25DE
:070DB900C290D2EFD2EE223E
:100C7B00E4FD90001FE0547FF0120DB990001FE0CF
:100C8B0020E7127FE87E03120D8943CF100DEDC3D1
:050C9B00943240E82244
:010CA0002231
:100C4500E4F523752110120C7BAF211521EF70F609
:100C5500120CC6120DD88F21120C7BE4F522E52269
:100C6500C395155009AF221207AC052280F0AF21BC
:050C75001521EF70E302
:010C7A002257
:100D2500E4FFEFC395155015EF12087AE0FCA3E038
:0D0D3500FDEF1208A5ECF0A3EDF00F80E536
:010D4200228E
:100CA100E4900035F0F524E524C39515500EAF24EA
:100CB1001207ACAF2412005E052480EB90002DE0FA
:040CC100FEA3E0FFAF
:010CC500220C
:02005E008F25EC
:10006000E4F52875F002EF12087DE0FEA3E0FF1230
:1000700008A31208F2F527EC9EF52674017E00A86D
:1000800025088005C333CE33CED8F9900032F0EE88
:10009000900031F0AF25120D078E2B8F2CC3E52772
:1000A000952CE52B1208B340057528018003E4F573
:1000B00028E528640160030201C4742D2525F8E6B3
:1000C000C394FA5001061208BC12091A6003020117
:1000D000A3900000E0F52A120DDBEF64017026F515
:1000E00028F52912088E500E120907C39401400208
:1000F0000528052980EDC3E52864809483400674B3
:1001000014252AF52A742D2525F8E6C3952A5003CF
:100110000201A3E4F528120DDEEF7046F52912085E
:100120008E5019E5256529600F120D9F120907C32E
:100130009F40057528018004052980E2120DDBEF40
:100140007047F52912088E5040E5256529600F1289
:100150000D9F74312529F8E6C39F400280280529A8
:1001600080E2120DDBEF7021F52AF52912088E507E
:100170000E120907C394024002052A052980EDE505
:100180002AC394034003752801E528700B1208BCAC
:100190004EF0A3E04FF0800B1208BC4EF0A3E04FEE
:1001A000F0D20074352525F8E4F674392525F8E4F5
:1001B000F6120883E4F0A3F012092160030203EFB2
:1001C00074FFF022AF25120D7A1208AE4008743188
:1001D0002525F806800D900035E004F074312525C2
:1001E000F8E4F6900022E0FF3395E0FEC3E49FFDC3
:1001F000E49EFCC3E5279DEC1208B350030202A85D
:100200001208AE40030202A890002DE07002A3E0A5
:10021000600302035F120883E5268527F012048D30
:10022000120DCA1208831208F2EE6480F8EC6480A2
:1002300098402D1208A3C083C082E0FEA3E0FF9087
:100240000022E0FD7803A2E713D8FBFD3395E0FC24
:10025000C3EF9DFFEE9CD082D083F0A3EFF08030FF
:10026000120DCAC3E49FFFE49EFE1208831208F237
:10027000EE6480F8EC648098501D900022E0FF78D6
:1002800003A2E713D8FBFF12089FEE8FF012048D34
:10029000120883E4F0A3F074352525F8E4F612097A
:1002A00021600302035F804B900022E0FFFD339545
:1002B000E0FCC3E49DFBE49CFAC3E5279BEA12083B
:1002C000B3503574352525F80674352525F8E6FE36
:1002D00075F00A84E5F07016EEC394284006E4F643
:1002E000D201800AEF12089FEE8FF012048D1209DE
:1002F00021706C74FFF08067D3E5279DEC1208B382
:10030000405DE527952CE52B1208B3505290002D47
:10031000E07002A3E0704890002CE0FFB4FF0CE511
:1003200025F0E490002FF0A3F08034EFB525309055
:10033000002FE475F00112048D120DC5C39000303A
:10034000E09F90002FE09E40161208BC12091A7020
:1003500004D201800A90002F74FFF5F012048D1270
:1003600008BC12091A6055752801AE2BAF2C7C0011
:100370007D031203F00D120457C31208AF503674F8
:10038000392525F806120DB18F2A74392525F8E68E
:10039000C3952A405AE4F6900031E0FEA3E0F4FF52
:1003A000EEF4FE90002DE05EF0A3E05FF0742D25EA
:1003B00025F8E4F62274392525F81622742D252512
:1003C000F8E4F6E5151465257025900035E0C39531
:1003D00015401CE4F528F52912088E500C12090767
:0F03E0006003752801052980EFE5287002C2002F
:0103EF0022EB
:100CC600E4FFEFC39515501875F002EF12087DE0AA
:100CD600FCA3E0FDEF1208CBECF0A3EDF00F80E2F1
:010CE60022EB
:0207AC008F2696
:1007AE00EF12086A1208F2F528EC9EF527AF261212
:1007BE000D07AD07AC06D3E5289DEC1208DA500BF9
:1007CE00C3E49DFFE49C1208D4500B120878E0FE9F
:1007DE00A3E0FF020857ECA2E713FEED13FFD312BE
:1007EE0008D6500BC3E49FFFE49E1208D450271284
:1007FE0008C9E0FCA3E0FDECC313FEED13FFC3ED4F
:10080E009FFDEC9EFC120878E0C313FEA3E0132DAF
:10081E00FFEC3EFE80331208C9E0FCA3E0FDECC401
:10082E00F854F0C868FEEDC4540F48FFC3ED9FFDA9
:10083E00EC9EFC120878E0C4F854F0C868FEA3E001
:10084E00C4540F482DFFEC3EFE1208C9EEF0A3EF84
:0B085E00F0E52612086AEEF0A3EFF0B0
:01086900226C
:030DE100A201224A
:030DE400D2012217
:100BCD00E4FFEFC395155023742D2FF8E4F674351B
:100BDD002FF8E4F674392FF8E4F6EF120885E4F0F7
:100BED00A3F074312FF8E4F60F80D7E490002DF0C8
:0F0BFD00A3F090002C74FFF0E490002FF0A3F011
:010C0C0022C5
:020928008F241A
:10092A00900033E0C394034004E40209D290002B00
:10093A00E004F0E0B52408120CC6E490002CF09014
:10094A00002BE0D3952450030209DBE4F525E525C5
:10095A00C39515503E75F002E5251208CEE0FEA3B8
:10096A00E0FF75F002E52512087D1208F2FFEC9E01
:10097A00FE900022E0FD3395E0D312090E400BE40D
:10098A009DFDE49CC312090E4009AF251207AC0570
:10099A002580BBE525B5150690002CE004F0E5247A
:1009AA00FD7C0075F00890002B1208F94023E4F052
:1009BA00C200900033E004F0ED75F00490002C12B0
:1009CA0008F9400DE4900033F0120D25120BCDC248
:0109DA00011B
:0109DB0022F9
:1009F600020DA9E493A3F8E493A34003F68001F261
:100A060008DFF48029E493A3F85407240CC8C33301
:100A1600C4540F4420C8834004F456800146F6DFD0
:100A2600E4800B0102040810204080900D57E47EFC
:100A3600019360BCA3FF543F30E509541FFEE493C5
:100A4600A360010ECF54C025E060A840B8E493A38C
:100A5600FAE493A3F8E493A3C8C582C8CAC583CAB7
:100A6600F0A3C8C582C8CAC583CADFE9DEE780BE6F
:010D69000089
:1003F000EF8DF0A4A8F0CF8CF0A428CE8DF0A42E21
:02040000FE22DA
:10040200BC000BBE0029EF8DF084FFADF022E4CCDE
:10041200F875F008EF2FFFEE33FEEC33FCEE9DECA7
:10042200984005FCEE9DFE0FD5F0E9E4CEFD22EDED
:10043200F8F5F0EE8420D21CFEADF075F008EF2F37
:10044200FFED33FD4007985006D5F0F222C398FD28
:050452000FD5F0EA22C5
:10045700C2D5EC30E709B2D5E4C39DFDE49CFCEEC0
:1004670030E715B2D5E4C39FFFE49EFE120402C332
:10047700E49DFDE49CFC800312040230D507C3E42D
:060487009FFFE49EFE222F
:10048D00C5F0F8A3E028F0C5F0F8E58215827002FA
:06049D001583E038F02297
:1004A300E88FF0A4CC8BF0A42CFCE98EF0A42CFCF8
:1004B3008AF0EDA42CFCEA8EF0A4CDA8F08BF0A476
:1004C3002DCC3825F0FDE98FF0A42CCD35F0FCEBD5
:1004D3008EF0A4FEA9F0EB8FF0A4CFC5F02ECD399A
:0F04E300FEE43CFCEAA42DCE35F0FDE43CFC2207
:100B8900C2D5E830E70FB2D5E4C39BFBE49AFAE497
:100B990099F9E498F8EC30E717B2D5120BBF1205B2
:100BA9005FE4C39BFBE49AFAE499F9E498F88003BB
:100BB90012055F30D50DE4C39FFFE49EFEE49DFD61
:040BC900E49CFC228A
:1004F200EB9FF5F0EA9E42F0E99D42F0E89C45F060
:0105020022D6
:10050300E86010ECA2E713FCED13FDEE13FEEF130E
:04051300FFD8F022FB
:0C051700A42582F582E5F03583F58322EF
:1005230075F008758200EF2FFFEE33FECD33CDCC8F
:1005330033CCC58233C5829BED9AEC99E582984012
:100543000CF582EE9BFEED9AFDEC99FC0FD5F0D6EF
:10055300E4CEFBE4CDFAE4CCF9A88222B800C1B919
:100563000059BA002DEC8BF084CFCECDFCE5F0CB57
:10057300F97818EF2FFFEE33FEED33FDEC33FCEB90
:1005830033FB10D703994004EB99FB0FD8E5E4F94B
:10059300FA227818EF2FFFEE33FEED33FDEC33FC38
:1005A300C933C910D7059BE99A4007EC9BFCE99A2C
:1005B300F90FD8E0E4C9FAE4CCFB2275F010EF2F71
:1005C300FFEE33FEED33FDCC33CCC833C810D70771
:1005D3009BEC9AE899400AED9BFDEC9AFCE899F8AC
:0E05E3000FD5F0DAE4CDFBE4CCFAE4C8F9223F
:00000001FF
